:020000040800F2
:10000000000004207D020008790200087702000841
:10001000770200087702000877020008000000005D
:10002000000000000000000000000000790200084D
:100030007902000800000000790200087902000837
:1000400077020008770200087702000877020008AC
:10005000770200087702000877020008770200089C
:10006000770200087702000877020008770200088C
:10007000770200087702000877020008770200087C
:10008000770200087702000877020008770200086C
:10009000770200087702000877020008770200085C
:1000A000770200087702000877020008770200084C
:1000B000770200087702000877020008770200083C
:1000C000770200087702000877020008770200082C
:1000D000770200087702000877020008770200081C
:1000E000770200087702000877020008770200080C
:1000F00077020008770200087702000877020008FC
:1001000077020008770200087702000877020008EB
:1001100077020008770200087702000877020008DB
:1001200077020008770200087702000877020008CB
:1001300077020008770200087702000877020008BB
:1001400077020008770200087702000877020008AB
:10015000770200087702000877020008770200089B
:10016000770200087702000877020008770200088B
:10017000770200087702000877020008770200087B
:10018000770200087702000877020008770200086B
:10019000770200087702000877020008770200085B
:1001A00077020008770200087702000808B540F6D9
:1001B000811000F053F8104802230022012100F0C2
:1001C0002DF80D4804230022012100F027F80A48E9
:1001D000042100F015F80848022100F013F8074B3D
:1001E00000BF013BFCD10448042100F00EF8024896
:1001F000022100F00AF8F2E70004004800093D007F
:1002000081617047090481617047436901EA030213
:1002100021EA030141EA0241816170472DE9F04181
:100220000568C46800264FF0030E43FA06F7FF077F
:100230000DD577000EFA07FC01FA07F825EA0C0540
:1002400024EA0C0402FA07F748EA05053C430136A4
:10025000102EEAD10560C460BDE8F081430903F1C6
:10026000804303F5043300F01F0019680122824027
:100270000A431A607047FEE77047000038B51D4A10
:100280001D4B1E498B4220D31D4A0021934221D38E
:100290004FF0E0231B4CD3F8142D1B4D42F4007299
:1002A000C3F8142DD3F8882D42F47002C3F8882DBA
:1002B000AC4212D3154C164DAC4212D3FFF776FF69
:1002C000144C154DAC4210D338BD52F8040B43F812
:1002D000040BD7E743F8041BD8E754F8043B9847CE
:1002E000E6E754F8043B9847E6E754F8043B9847A0
:1002F000E8E700BF1C030008000000200000002009
:10030000000000201C0300081C0300081C03000858
:0C0310001C0300081C0300081C0300086C
:040000050800027D70
:00000001FF
