:1000000000000220C1010000BF010000BD0100008E
:10001000BD010000BD010000BD01000000000000A6
:10002000000000000000000000000000BF01000010
:10003000BF01000000000000BF010000BF01000080
:10004000BD010000BD010000BD010000BD010000B8
:10005000BD010000BD010000BD010000BD010000A8
:10006000BD010000BD010000BD010000BD01000098
:10007000BD010000BD010000BD010000BD01000088
:10008000BD010000BD010000BD010000BD01000078
:10009000BD010000BD010000BD010000BD01000068
:1000A000BD010000BD010000BD010000BD01000058
:1000B00008B5002000F04EF824484FF400730022E9
:1000C000012100F069F80823002201214FF0A0402F
:1000D00000F062F80423002201214FF0A04000F05C
:1000E0005BF81A484FF4007100F03EF808214FF019
:1000F000A04000F03EF804214FF0A04000F039F895
:10010000134B00BF013BFCD108214FF0A04000F091
:1001100035F80F4B00BF013BFCD108214FF0A04048
:1001200000F02CF80A4B00BF013BFCD104214FF03A
:10013000A04000F023F8064B00BF013BFCD1042196
:100140004FF0A04000F01AF8DAE700BF00030050BB
:1001500000127A004FF0804301221A6018B1D3F8E0
:100160000C24D203FBD570474FF0A043C3F8081509
:1001700070474FF0A043C3F80C1570474FF0A043F1
:10018000D3F8042502EA010021EA0201C3F80C05B4
:10019000C3F808157047000010B5074C41EA82010A
:1001A00003B910BDDA0741BF206820F00A000843F8
:1001B00020605B080434F3E700070050FEE7704757
:1001C00038B51A4A1A4B1B498B421AD31A4A0021D6
:1001D00093421BD34FF0E022184CD2F8143D184D37
:1001E00043F40073C2F8143DAC4212D3154C164DC3
:1001F000AC4212D3FFF75CFF144C154DAC4210D348
:1002000038BD52F8040B43F8040BDDE743F8041B38
:10021000DEE754F8043B9847E6E754F8043B984778
:10022000E6E754F8043B9847E8E700BF54020000B3
:100230000000002000000020000000205402000008
:100240005402000054020000540200005402000056
:040250005402000054
:04000003000001C137
:00000001FF
