:100000000000022085010000830100008101000042
:10001000810100008101000081010000000000005A
:10002000000000000000000000000000830100004C
:100030008301000000000000830100008301000034
:1000400081010000810100008101000081010000A8
:100050008101000081010000810100008101000098
:100060008101000081010000810100008101000088
:100070008101000081010000810100008101000078
:100080008101000081010000810100008101000068
:100090008101000081010000810100008101000058
:1000A0008101000081010000810100008101000048
:1000B00008B5002000F030F84FF000530022012175
:1000C0004FF0A04000F04AF84FF080430022012199
:1000D0004FF0A04000F042F84FF080414FF0A040B8
:1000E00000F024F84FF000514FF0A04000F023F84A
:1000F000084B00BF013BFCD14FF080414FF0A040C6
:1001000000F01EF84FF000514FF0A04000F018F83A
:10011000EEE700BF00093D004FF0804301221A6066
:1001200018B1D3F80C24D203FBD570474FF0A0438D
:10013000C3F8081570474FF0A043C3F80C1570477B
:100140004FF0A043D3F8042502EA010021EA02019E
:10015000C3F80C05C3F808157047000010B5074C2C
:1001600041EA820103B910BDDA0741BF206820F0DF
:100170000A00084320605B080434F3E700070050DE
:10018000FEE7704738B51A4A1A4B1B498B421AD3FF
:100190001A4A002193421BD34FF0E022184CD2F8A8
:1001A000143D184D43F40073C2F8143DAC4212D311
:1001B000154C164DAC4212D3FFF77AFF144C154D77
:1001C000AC4210D338BD52F8040B43F8040BDDE702
:1001D00043F8041BDEE754F8043B9847E6E754F87D
:1001E000043B9847E6E754F8043B9847E8E700BF2C
:1001F0001802000000000020000000200000002085
:100200001802000018020000180200001802000086
:080210001802000018020000B2
:040000030000018573
:00000001FF
